:100000000C9434000C943E000C943E000C943E0082
:100010000C943E000C943E000C943E000C943E0068
:100020000C943E000C943E000C943E000C943E0058
:100030000C943E000C943E000C943E000C943E0048
:100040000C943E000C943E000C943E000C943E0038
:100050000C943E000C943E000C943E000C943E0028
:100060000C943E000C943E0011241FBECFEFD8E04C
:10007000DEBFCDBF0E9440000C94A5000C94000090
:10008000259A83E090E02D9A2FEF32E547E021504A
:1000900030404040E1F700C000002D982FEF32E5DE
:1000A00047E0215030404040E1F700C00000019798
:1000B00051F78FEF97E823E1815090402040E1F71E
:1000C00000C0000083E090E02D9A3FEF46E121E17F
:1000D000315040402040E1F700C000002D983FEF34
:1000E00046E121E1315040402040E1F700C00000EE
:1000F000019751F73FEF47E883E13150404080409E
:10010000E1F700C0000083E090E02D9A2FEF32E588
:1001100047E0215030404040E1F700C000002D98FA
:100120002FEF32E547E0215030404040E1F700C07A
:100130000000019751F78FEF93ED20E3815090403D
:0E0140002040E1F700C000009CCFF894FFCFF4
:00000001FF
